:020000040800F2
:100000000080012061370008B1370008B1370008CF
:10001000B1370008B1370008B13700080000000010
:10002000000000000000000000000000DD350008B6
:10003000B137000800000000E1350008E535000890
:10004000B1370008B1370008B1370008B1370008F0
:10005000B1370008B1370008B1370008B1370008E0
:10006000B1370008B1370008B1370008B1370008D0
:10007000B1370008B1370008F5350008013600082F
:10008000B1370008B1370008B1370008B1370008B0
:10009000B1370008B1370008B1370008B1370008A0
:1000A000B1370008B1370008B1370008B137000890
:1000B000B1370008B1370008B1370008B137000880
:1000C000B1370008B1370008B1370008B137000870
:1000D000B1370008B1370008B1370008B137000860
:1000E000B1370008B1370008B1370008B137000850
:1000F000B1370008B1370008B1370008B137000840
:10010000B1370008B1370008B1370008B13700082F
:10011000B1370008B1370008B1370008B13700081F
:10012000B1370008B1370008B1370008B13700080F
:10013000B1370008B1370008B1370008B1370008FF
:10014000B1370008B1370008B1370008B1370008EF
:10015000B1370008B1370008B1370008B1370008DF
:10016000B1370008B1370008B1370008B1370008CF
:10017000B1370008B1370008B137000800000000AF
:08018000B1370008B137000897
:1001900010B5054C237833B9044B13B10448AFF3C1
:1001A00000800123237010BDE0010020000000004A
:1001B000D472000808B5034B1BB103490348AFF3E1
:1001C000008008BD00000000E4010020D472000897
:1001D0004B1C012B98BF70472DE9F003911C9B0825
:1001E000B1F80480B1F802900A8831F802CC80445A
:1001F000814402448444D9F80070D8F8006015683E
:10020000DCF80040C9F80060C8F80070CCF8005075
:100210001460D9F80470D8F804605568DCF804401C
:10022000C9F80460C8F80470CCF804505460083170
:10023000013BD5D1BDE8F00370474B1C012B98BFA3
:1002400070472DE9F003911C9B08B1F80480B1F8C8
:1002500002900A8831F802CC00EB580800EB5909EB
:1002600000EB520200EB5C0CD9F80070D8F800608B
:100270001568DCF80040C9F80060C8F80070CCF8D8
:10028000005014600831013BDFD1BDE8F003704736
:1002900081F0004102E000BF83F0004330B54FEA37
:1002A00041044FEA430594EA050F08BF90EA020FA4
:1002B0001FBF54EA000C55EA020C7FEA645C7FEA37
:1002C000655C00F0E2804FEA5454D4EB5555B8BF5A
:1002D0006D420CDD2C4480EA020281EA030382EACB
:1002E000000083EA010180EA020281EA0303362D5D
:1002F00088BF30BD11F0004F4FEA01314FF4801C30
:100300004CEA113102D0404261EB410113F0004F41
:100310004FEA03334CEA133302D0524263EB4303F8
:1003200094EA050F00F0A780A4F10104D5F1200E96
:100330000DDB02FA0EFC22FA05F2801841F10001F1
:1003400003FA0EF2801843FA05F359410EE0A5F1C5
:1003500020050EF1200E012A03FA0EFC28BF4CF0F6
:10036000020C43FA05F3C01851EBE37101F00045AC
:1003700007D54FF0000EDCF1000C7EEB00006EEBB9
:100380000101B1F5801F1BD3B1F5001F0CD3490843
:100390005FEA30004FEA3C0C04F101044FEA44529A
:1003A00012F5800F80F09A80BCF1004F08BF5FEA21
:1003B000500C50F1000041EB045141EA050130BD01
:1003C0005FEA4C0C404141EB010111F4801FA4F1A4
:1003D0000104E9D191F0000F04BF01460020B1FAF9
:1003E00081F308BF2033A3F10B03B3F120020CDA31
:1003F0000C3208DD02F1140CC2F10C0201FA0CF00F
:1004000021FA02F10CE002F11402D8BFC2F1200C73
:1004100001FA02F120FA0CFCDCBF41EA0C01904029
:10042000E41AA2BF01EB0451294330BD6FEA040472
:100430001F3C1CDA0C340EDC04F11404C4F120025D
:1004400020FA04F001FA02F340EA030021FA04F36F
:1004500045EA030130BDC4F10C04C4F1200220FAC6
:1004600002F001FA04F340EA0300294630BD21FA04
:1004700004F0294630BD94F0000F83F4801306BFCA
:1004800081F480110134013D4EE77FEA645C18BFBE
:100490007FEA655C29D094EA050F08BF90EA020F55
:1004A00005D054EA000C04BF1946104630BD91EA4D
:1004B000030F1EBF0021002030BD5FEA545C05D150
:1004C0004000494128BF41F0004130BD14F580048F
:1004D0003CBF01F5801130BD01F0004545F0FE4103
:1004E00041F470014FF0000030BD7FEA645C1ABF38
:1004F000194610467FEA655C1CBF0B46024650EA6F
:10050000013406BF52EA033591EA030F41F400219A
:1005100030BD00BF90F0000F04BF0021704730B520
:100520004FF4806404F132044FF000054FF00001F5
:1005300050E700BF90F0000F04BF0021704730B5B6
:100540004FF4806404F1320410F0004548BF40428B
:100550004FF000013EE700BF42004FEAE2014FEAE0
:1005600031014FEA02701FBF12F07F4393F07F4FBB
:1005700081F06051704732F07F4208BF704793F0BE
:100580007F4F04BF41F40021704730B54FF46074D1
:1005900001F0004521F000411CE700BF50EA0102D4
:1005A00008BF704730B54FF000050AE050EA01027D
:1005B00008BF704730B511F0004502D5404261EBED
:1005C00041014FF4806404F132045FEA915C3FF42E
:1005D000D8AE4FF003025FEADC0C18BF03325FEACB
:1005E000DC0C18BF033202EBDC02C2F1200300FA7C
:1005F00003FC20FA02F001FA03FE40EA0E0021FAA1
:1006000002F11444BDE600BF70B54FF0FF0C4CF48E
:10061000E06C1CEA11541DBF1CEA135594EA0C0F40
:1006200095EA0C0F00F0DEF82C4481EA030621EA7B
:100630004C5123EA4C5350EA013518BF52EA0335B6
:1006400041F4801143F4801338D0A0FB02CE4FF068
:100650000005E1FB02E506F00042E0FB03E54FF098
:100660000006E1FB03569CF0000F18BF4EF0010E90
:10067000A4F1FF04B6F5007F64F5407404D25FEA8C
:100680004E0E6D4146EB060642EAC62141EA55513F
:100690004FEAC52040EA5E504FEACE2EB4F1FD0C81
:1006A00088BFBCF5E06F1ED8BEF1004F08BF5FEAFF
:1006B000500E50F1000041EB045170BD06F00046B1
:1006C00046EA010140EA020081EA0301B4EB5C045E
:1006D000C2BFD4EB0C0541EA045170BD41F4801156
:1006E0004FF0000E013C00F3AB8014F1360FDEBF7B
:1006F000002001F0004170BDC4F10004203C35DA57
:100700000C341BDC04F11404C4F1200500FA05F3D9
:1007100020FA04F001FA05F240EA020001F000427A
:1007200021F0004110EBD37021FA04F642EB0601F0
:100730005EEA430E08BF20EAD37070BDC4F10C041A
:10074000C4F1200500FA04F320FA05F001FA04F2DE
:1007500040EA020001F0004110EBD37041F10001CA
:100760005EEA430E08BF20EAD37070BDC4F12005D5
:1007700000FA05F24EEA020E20FA04F301FA05F23D
:1007800043EA020321FA04F001F0004121FA04F2E5
:1007900020EA020000EBD3705EEA430E08BF20EAB5
:1007A000D37070BD94F0000F0FD101F000464000EF
:1007B00041EB010111F4801F08BF013CF7D041EA71
:1007C000060195F0000F18BF704703F00046520075
:1007D00043EB030313F4801F08BF013DF7D043EA46
:1007E0000603704794EA0C0F0CEA135518BF95EAFC
:1007F0000C0F0CD050EA410618BF52EA4306D1D183
:1008000081EA030101F000414FF0000070BD50EAA1
:10081000410606BF1046194652EA430619D094EA2B
:100820000C0F02D150EA013613D195EA0C0F05D115
:1008300052EA03361CBF104619460AD181EA030169
:1008400001F0004141F0FE4141F470014FF0000021
:1008500070BD41F0FE4141F4780170BD70B54FF0BC
:10086000FF0C4CF4E06C1CEA11541DBF1CEA13553C
:1008700094EA0C0F95EA0C0F00F0A7F8A4EB05041E
:1008800081EA030E52EA03354FEA013100F0888015
:100890004FEA03334FF0805545EA131343EA1263DE
:1008A0004FEA022245EA111545EA10654FEA002693
:1008B0000EF000419D4208BF964244F1FD0404F54C
:1008C000407402D25B084FEA3202B61A65EB0305A8
:1008D0005B084FEA32024FF480104FF4002CB6EB65
:1008E000020E75EB030E22BFB61A754640EA0C00E5
:1008F0005B084FEA3202B6EB020E75EB030E22BF25
:10090000B61A754640EA5C005B084FEA3202B6EB65
:10091000020E75EB030E22BFB61A754640EA9C0024
:100920005B084FEA3202B6EB020E75EB030E22BFF4
:10093000B61A754640EADC0055EA060E18D04FEAB2
:10094000051545EA16754FEA06164FEAC30343EA52
:1009500052734FEAC2025FEA1C1CC0D111F4801F1F
:100960000BD141EA00014FF000004FF0004CB6E718
:1009700011F4801F04BF01430020B4F1FD0C88BFB7
:10098000BCF5E06F3FF6AFAEB5EB030C04BFB6EBC2
:10099000020C5FEA500C50F1000041EB045170BDB5
:1009A0000EF0004E4EEA113114EB5C04C2BFD4EBE2
:1009B0000C0541EA045170BD41F480114FF0000E66
:1009C000013C90E645EA060E8DE60CEA135594EAE2
:1009D0000C0F08BF95EA0C0F3FF43BAF94EA0C0FE5
:1009E0000AD150EA01347FF434AF95EA0C0F7FF45A
:1009F00025AF104619462CE795EA0C0F06D152EAAE
:100A000003353FF4FDAE1046194622E750EA410691
:100A100018BF52EA43067FF4C5AE50EA41047FF4A2
:100A20000DAF52EA43057FF4EBAE12E74FEA410205
:100A3000B2F1E04324BFB3F5001CDCF1FE5C0DD93C
:100A400001F0004C4FEAC0024CEA5070B2F1004F86
:100A500040EB830008BF20F00100704711F0804F89
:100A600021D113F13872BCBF01F00040704741F44E
:100A700080114FEA5252C2F11802C2F1200C10FA52
:100A80000CF320FA02F018BF40F001004FEAC12336
:100A90004FEAD32303FA0CFC40EA0C0023FA02F3DA
:100AA0004FEA4303CCE77FEA625307D150EA0133B0
:100AB0001EBF4FF0FE4040F44000704701F0004080
:100AC00040F0FE4040F40000704700BF53B94AB9FF
:100AD000002908BF00281CBF4FF0FF314FF0FF3046
:100AE00000F072B9ADF1080C6DE904CE00F006F823
:100AF000DDF804E0DDE9022304B070472DE9F0479A
:100B0000089E04468846002B4BD18A42154667D979
:100B1000B2FA82F24AB1C2F1200701FA02F320FAD6
:100B200007F7954047EA030894404FEA154E230C17
:100B3000B8FBFEF71FFA85FC0EFB178843EA084353
:100B400007FB0CF1994209D9EB1807F1FF3080F04F
:100B50001B81994240F21881023F2B445B1AA4B2D8
:100B6000B3FBFEF00EFB103344EA034400FB0CFC25
:100B7000A44509D92C1900F1FF3380F00781A44561
:100B800040F2048102382C4440EA0740A4EB0C04F4
:100B900000271EB1D4400023C6E900433946BDE812
:100BA000F0878B4209D9002E00F0EB800027C6E9C0
:100BB000000138463946BDE8F087B3FA83F7002FC5
:100BC00047D18B4202D3824200F2FA80841A61EB51
:100BD000030301209846002EE0D0C6E90048DDE777
:100BE00002B9FFDEB2FA82F2002A40F08F80491B80
:100BF0004FEA154E1FFA85F80127B1FBFEFC230CC6
:100C00000EFB1C1143EA014308FB0CF1994207D982
:100C1000EB180CF1FF3002D2994200F2CD808446ED
:100C2000591AA3B2B1FBFEF00EFB101443EA0444C0
:100C300008FB00F8A04507D92C1900F1FF3302D2B8
:100C4000A04500F2B6801846A4EB080440EA0C4028
:100C50009FE7C7F1200CBB4022FA0CFE4EEA030EC0
:100C600001FA07F420FA0CF521FA0CF34FEA1E48BA
:100C70002543B3FBF8F92C0C08FB19331FFA8EFA45
:100C800044EA034309FB0AF49C4202FA07F200FA21
:100C900007F10BD91EEB030309F1FF3080F08780C9
:100CA0009C4240F28480A9F1020973441B1BADB23F
:100CB000B3FBF8F008FB103345EA034400FB0AFAE3
:100CC000A24508D91EEB040400F1FF336BD2A24504
:100CD00069D90238744440EA0940A0FB0289A4EBB8
:100CE0000A044C45C2464B4654D351D0002E69D01D
:100CF000B1EB0A0564EB030404FA0CFCFD40FC4074
:100D00004CEA0505C6E90054002747E7C2F1200375
:100D100020FA03F7954001FA02F021FA03F34FEAB3
:100D2000154E3843010CB3FBFEF71FFA85F80EFB96
:100D3000173341EA034107FB08F38B4204FA02F43C
:100D400007D9691807F1FF3C2FD28B422DD9023FFA
:100D50002944CB1A81B2B3FBFEF00EFB103341EAFB
:100D6000034100FB08F38B4207D9691800F1FF3CEF
:100D700017D28B4215D902382944C91A40EA0747CD
:100D80003BE73746304609E70746E7E61846FBE605
:100D90004145ABD2B8EB020A69EB0E0201381346AB
:100DA000A4E76046E9E7184695E76746D1E781463C
:100DB0007CE702382C4447E7ACF1020C2B442FE7C8
:100DC000384608E73746E9E6704700BF034613F8A0
:100DD000012B002AFBD1181A0138704700000000CF
:100DE00001F0FF01102A2BDB10F0070F08D010F8DC
:100DF000013B013A8B422DD010F0070F42B3F6D1E0
:100E0000F0B441EA012141EA014122F007047FF0F8
:100E100000070023F0E80256083C85EA010586EA4F
:100E2000010685FA47F5A3FA87F586FA47F6A5FA8B
:100E300087F68EB9EED1F0BC01F0FF0102F0070297
:100E400032B110F8013B013A83EA010313B1F8D142
:100E50000020704701387047002D06BF3546033823
:100E6000073815F0010F07D1013015F4807F02BF5C
:100E7000013015F4C03F0130F0BC0138704700BFAD
:100E80004FF0FF3C06E000BF4FF0010C02E000BF56
:100E90004FF0010C4DF804CD4FEA410C7FEA6C5C39
:100EA0004FEA430C18BF7FEA6C5C1BD001B050EADC
:100EB000410C0CBF52EA430C91EA030F02BF90EAC7
:100EC000020F0020704710F1000F91EA030F58BF86
:100ED000994208BF90422CBFD8176FEAE37040F0E8
:100EE000010070474FEA410C7FEA6C5C02D150EA86
:100EF000013C07D14FEA430C7FEA6C5CD6D152EA41
:100F0000033CD3D05DF8040B704700BF8446104605
:100F100062468C461946634600E000BF01B5FFF704
:100F2000B7FF002848BF10F1000F01BD4DF808EDD4
:100F3000FFF7F4FF0CBF012000205DF808FB00BFA5
:100F40004DF808EDFFF7EAFF34BF012000205DF8FF
:100F500008FB00BF4DF808EDFFF7E0FF94BF01204C
:100F600000205DF808FB00BF4DF808EDFFF7CEFF4D
:100F700094BF012000205DF808FB00BF4DF808ED8C
:100F8000FFF7C4FF34BF012000205DF808FB00BF5D
:100F90004FEA410C7FEA6C5C02D150EA013C0AD175
:100FA0004FEA430C7FEA6C5C02D152EA033C02D167
:100FB0004FF0000070474FF0010070474FEA4102C8
:100FC00012F5001215D211D56FF47873B3EB62529B
:100FD00012D94FEAC12343F0004343EA505311F0C2
:100FE000004F23FA02F018BF404270474FF0000054
:100FF000704750EA013005D111F0004008BF6FF092
:10100000004070474FF00000704700BF084B094A8E
:101010001B6810B5A2FB03230446980900F08EF864
:10102000214600224FF0FF3000F046F8002010BDAE
:1010300004000020D34D6210074A08B5136843F43A
:1010400080731360032000F025F80020FFF7DEFF17
:1010500002F07CFA002008BD00200240024A13681A
:1010600001331360704700BF38050020014B18683A
:10107000704700BF3805002038B50446FFF7F6FF7B
:10108000631C054618BF0134FFF7F0FF401BA04268
:10109000FAD338BD074AD3684FF6FF010B40000270
:1010A00043F0BF6300F4E06043F400330343D360D4
:1010B000704700BF00ED00E0184BDB68C3F302236C
:1010C00030B4C3F10705042D03F1040428BF04253F
:1010D000062C19D9033B4FF0FF349C4022EA04044C
:1010E0004FF0FF32AA4021EA020101FA03F2224343
:1010F00012010028D2B20ADB00F1604000F5614025
:1011000080F8002330BC704700242346E8E7044BF6
:1011100000F00F0003441A7630BC704700ED00E089
:10112000FCEC00E000F01F0101234009024A8B4063
:1011300042F82030704700BF00E100E00138B0F114
:10114000807F0ED2084B10B4084C5860F02084F811
:1011500023000022072110469A6019605DF8044BB5
:1011600070470120704700BF10E000E000ED00E094
:10117000044A136804280CBF43F0040323F004035B
:101180001360704710E000E0704700BF08B5FFF73C
:10119000FBFF08BD416B036890F84C2051B91968FA
:1011A00041F400311960012A14BF0423022380F89E
:1011B0004C307047196821F001011960196841F439
:1011C000002119601968032A41F001011960EAD170
:1011D000826B1AB91A6842F002021A6090F8403025
:1011E000012B0CBF436C01238364042380F84C3033
:1011F000704700BF144B984217D02033984218D044
:101200002033984213D02033984214D02033984290
:1012100013D02033984212D02033984211D020337B
:10122000984214BFFF20072070470020704702201B
:101230007047012070470320704704207047052045
:1012400070470620704700BF0060014058B170B57C
:1012500004460068434DFFF7CDFF55F820302BB111
:101260000123184670BD012318467047204601F03F
:1012700029FF3D4B1A6801321A601B68012B4ED0C2
:10128000206823690268D4E9056122F47142026092
:10129000026833430B43134303600268D4E9073108
:1012A00022F00F02026002680B431343036083685D
:1012B00023F45F0383604FF4F81292FAA2F2A36A58
:1012C0008668616AB2FA82F2013B934031430B4374
:1012D0008360436803F0070343606FF0FF0393FAF2
:1012E000A3F3F821B3FA83F291FAA1F1D4E90B3612
:1012F000B1FA81F106FA01F1934042680B431343BE
:1013000043600368012243F08003036084F83420C3
:10131000FFF770FF002345F82040184670BD134BBF
:1013200021791A6822F080421A601A68A068024384
:101330001A601A68012922F47F021A600BD14FF457
:101340007F0191FAA1F1E2681868B1FA81F1013ADE
:101350008A4002431A60054A136843F00043136051
:101360008EE700BFFC0100201C020020006001404D
:1013700000286DD0F8B50268394B9A4260D0044617
:101380000022012302630265C0E9113301F0FEFD72
:101390002368217A1A6822F400221A601A68012947
:1013A0000CBF42F0005222F000521A60627A012A09
:1013B0001A680CBF42F4001222F400121A601A6874
:1013C000E76822F4CE4222F00802022F1A6041D0D0
:1013D000267C1A68234D012E0CBF42F0100222F029
:1013E00010021A60627C012A1A680CBF42F02002C7
:1013F00022F020021A605A6922F0634202F0FF22B2
:101400005A6195FAA5F5D4E908125869013A0243E0
:10141000E069B5FA85F50139A94002430A435A61EA
:101420001A686068A169606342F001020125A76340
:1014300084F84060E16300201A6084F84C50F8BDE5
:101440004368012B02D0C368012B98D11846F8BD20
:10145000012070471A6861690A431A60B8E700BF43
:10146000006101400000FF0390F84C30013BDBB20B
:10147000FD2B16D810B40468236823F0E06323F42E
:10148000802323600902236801F07F41012A08BFFD
:1014900041F480211943216002635DF8044B002070
:1014A00070470120704700BFF8B509B302B3066862
:1014B0003468A3021CD5446BA4B9036B93B9836A47
:1014C000DC691D468CB3202C12D090F84C40012CC6
:1014D00032D0032C0CD11D461A4C1B4BEC626B63B3
:1014E000002412E090F84C40012C04D0032C02D0D0
:1014F00001242046F8BD856A124FEB69EF62202B6C
:10150000114F124C6F6318BF002413462C630A4618
:10151000074606F11C01284600F094F8044638B14D
:10152000FF2387F84C300124E3E7012AE0D1CCE720
:101530003846FFF72FFEDCE7034C024F5C63DF62A7
:101540000024E2E7511500086D1500085D1500083C
:1015500008B5806A01F0CAFF08BD00BF08B5806AFF
:1015600001F0C2FF08BD00BF704700BF08B5806A28
:1015700003230365FFF7F8FF08BD00BF00284FD025
:101580000346284A0068904270B445D9264A274944
:10159000274C1C640244A1FB0212120992005A64F7
:1015A000D3E90242D3E9045122432A439E6902252A
:1015B00083F825500A43DD69016832432A431D6AD6
:1015C00021F47F512A4321F030010A43B4F5804FC2
:1015D000026014D01C6C174D586C5968AC424FF027
:1015E0000F0202FA00F201FA00F10CBF1248134890
:1015F0000468D24322400260026811430160002067
:101600000122D863C3E90B00C3E90D0083F824006D
:1016100083F8252070BC7047094A0449054CB8E797
:101620000120704707040240F8FBFDBFCDCCCCCCB5
:101630000004024000000240A8000240A80402404A
:10164000F8FFFDBFF0B490F82440012C31D090F8A1
:1016500025500124EDB2A54280F8244023D104682E
:101660000227002680F82570C6632668076C26F0DE
:10167000010C466CC4F800C0B54086687D606360AC
:10168000036B102E0BBFA260A160E160E2609BB112
:10169000236843F00E032360236843F001032360B3
:1016A0000020F0BC7047002380F82430F0BC0220FA
:1016B00070470220F0BC7047236823F004032360C6
:1016C000236843F00A032360E6E700BF70B4D0E963
:1016D000105204232968046893400B4226680AD0FC
:1016E00016F0040F07D02268920637D5026B6B60A4
:1016F000CAB170BC1047022393400B4215D016F0BC
:10170000020F12D02268920606D42268012122F02C
:101710000A02226080F82510C26A6B60002380F8FC
:101720002430002AE5D170BC7047082393400B4257
:10173000F9D03307F7D52368416B23F00E032360FC
:10174000012303FA02F200246A60C36380F8244094
:1017500080F825300029E6D070BC0847226822F0C6
:1017600004022260C2E700BF2DE9F04F88460968F5
:1017700083B0002900F0A080DFF810E200250123EB
:1017800003FA05F212EA010700F09180D8F804404C
:1017900024F01006022E00F092804FEA450C03233D
:1017A000D0F800B003FA0CF3DB4304F0030903EABA
:1017B0000B0B09FA0CFA013E4AEA0B0A012EC0F89B
:1017C00000A040F2A280B9F1030F0AD1D0F82C900A
:1017D000C4F3C00629EA02093246AA4042EA0902D5
:1017E000C262C668D8F80820334002FA0CF21A43E5
:1017F000E300C2605BD55E4A136E43F001031366DB
:10180000136E25F0030606F1804603F0010306F58A
:101810008036019305F00303019AD6F808C04FEA19
:1018200083090F2202FA09F2B0F1904F2CEA02026A
:101830001BD0504B984200F083804F4B984279D098
:101840004E4B984200F087804D4B984200F08980C3
:101850004C4B984279D04C4B98420CBF4FF0060C41
:101860004FF0070C0CFA09F31A43B260DEF80030AF
:10187000FA43E60354BF13403B43CEF80030DEF892
:101880000430A60354BF13403B43CEF80430DEF8C7
:101890000830E60254BF13403B43CEF80830DEF870
:1018A0000C30A40254BF13403B43CEF80C3001353A
:1018B00031FA05F37FF463AF03B0BDE8F08F4FEA70
:1018C000D50C00EB8C0C05F00706DCF82030B600D8
:1018D0004FF00F0A0AFA06FA23EA0A09D8F810307C
:1018E000B34043EA0903CCF820304FEA450C032308
:1018F000066803FA0CF3DB4304F0030906EA030A63
:1019000009FA0CF646EA0A060660866806EA030A41
:10191000D8F80C6006FA0CF646EA0A068660D0F89B
:1019200004A0C4F300162AEA020AAE4046EA0A06F8
:10193000466048E74FF0020C0CFA09F31A4394E7AB
:10194000012303FA09F31A438FE74FF0050C0CFA51
:1019500009F31A4389E74FF0030C0CFA09F31A4311
:1019600083E74FF0040C0CFA09F31A437DE700BF3C
:10197000001002400004004800080048000C004825
:1019800000100048001400480018004800040140FE
:101990000AB9816270478161704700BF024B1868C5
:1019A00000F4C060704700BF00700040184A136820
:1019B000B0F5007F03F4C0630AD0B3F5806F05D0A3
:1019C000136823F4C06343F48063136000207047FE
:1019D000B3F5007FFAD010680E4B0F4920F4C060B9
:1019E00040F4007010601B68A1FB0313990C3223B4
:1019F00003FB01F313B904E0013B02D0516949052F
:101A0000FAD4034B5B695B05E0D50320704700BF48
:101A1000007000400400002083DE1B4330B5204DE1
:101A2000AB6DDB0083B004461AD5FFF7B7FFB0F506
:101A3000007F27D0802C2CD82FD0A4F17004B4FACA
:101A400084F4640917490B6823F0070323430B60F0
:101A5000086800F00700001B18BF012003B030BD6C
:101A6000AB6D43F08053AB65AB6D03F080530193D6
:101A7000019BFFF793FFAB6DB0F5007F23F0805320
:101A8000AB65D7D1802C06D9A02C8CBF02240124B1
:101A9000D8E70324D6E70024D4E70224D2E700BF26
:101AA00000100240002002403A4B9A6812F00C0FDE
:101AB0003BD09A6802F00C020C2A31D0354A936868
:101AC00003F00C03042B59D0936803F00C03082B8C
:101AD00051D0304A936803F00C0300200C2B0146D0
:101AE0003FD110B4D468D06804F00304C0F30210EE
:101AF000022C00F1010344D0032C33D0B1FBF3F3EB
:101B0000D068C0F3062003FB00F0224B5DF8044BC5
:101B1000DB68C3F3416301335B00B0FBF3F0704754
:101B2000DB6803F00303012BC8D11A4B1A491A686A
:101B3000120754BFD3F894301B68164A54BFC3F33E
:101B40000323C3F30313926851F8231012F00C0F10
:101B50000CBF084600200F4A936803F00C030C2BBF
:101B6000BFD07047D2680D48B0FBF3F0C2F3062334
:101B700000FB03F0C9E709480021ECE70848002111
:101B8000E9E7D2680648B0FBF3F0C2F3062300FB96
:101B900003F0BAE700100240D873000800127A0080
:101BA0000024F4002DE9F04103680446D80682B011
:101BB0003ED5B34DAA6812F00C0F40F021812B687E
:101BC000990700F14381AE4B206A1A68120756BF8D
:101BD000D3F894301B681B0903F0F003984240F2DD
:101BE000B881FFF71BFF002840F03481A44B1A682E
:101BF00042F008021A601A68216A22F0F0020A43D1
:101C00001A605A68E16922F47F4242EA01225A606E
:101C1000FFF74AFF9A4B9B499B689B4AC3F3031308
:101C2000CB5C20FA03F300201360FFF7EFF9236881
:101C3000D9072FD592498A6802F00C02082A00F0D1
:101C400057818A6802F00C020C2A00F04B8163680D
:101C5000B3F5803F00F05681B3F5A02F00F0CF819F
:101C6000874D2A6822F480322A602A6822F4802272
:101C70002A60002B40F04B81FFF7F8F9064605E09B
:101C8000FFF7F4F9801B642800F25F812B689F0343
:101C9000F6D423689E0700F188801A0719D5636976
:101CA000774D002B00F0F480D5F8943043F0010319
:101CB000C5F89430FFF7DAF9064605E0FFF7D6F9E4
:101CC000801B022800F24181D5F894309B07F5D59E
:101CD00023685E073ED56A4B9A6DD50000F15081AE
:101CE0009A6D42F080529A659B6D03F08053019388
:101CF000019B0126654D2A68D00540F11681A36835
:101D0000012B00F03F81052B00F086815C4DD5F85A
:101D1000902022F00102C5F89020D5F8902022F002
:101D20000402C5F89020002B40F03381FFF79EF9A4
:101D300041F28837804606E0FFF798F9A0EB0800EB
:101D4000B84200F20281D5F890309B07F4D4002EFF
:101D500040F04F81A26A22B3494DA96801F00C01FD
:101D60000C2977D0022A2A6822F080722A6000F0BB
:101D700061812A68110140F13381414CE36823F00D
:101D8000887323F48033E360FFF770F9054605E0BC
:101D9000FFF76CF9401B022800F2D78023689B01F3
:101DA000F6D4002002B0BDE8F08135498A6802F01F
:101DB0000C02042A00F086808A6802F00C020C2AC9
:101DC0007AD0E3682E4D002B00F0F8802B6843F4A6
:101DD00080732B60FFF74AF9064605E0FFF746F9E6
:101DE000801B022800F2B1802B685805F6D56B687D
:101DF000226923F0F85343EA02636B6023684CE7DF
:101E0000A2695AB32A6842F001022A60FFF72EF94C
:101E1000064605E0FFF72AF9801B022800F29580AC
:101E20002B689F07F6D52B6843F008032B602B68BF
:101E3000226A23F0F00313432B606B68E26923F4FA
:101E40007F4343EA02236B602368F1E6A369002B1A
:101E50007FF4B9AE012002B0BDE8F0812A6822F01B
:101E600001022A60FFF702F9064604E0FFF7FEF8D8
:101E7000801B022869D82B689807F7D42368D7E617
:101E800000100240C07300080400002000700040F1
:101E9000D5F8943023F00103C5F89430FFF7E6F845
:101EA000064604E0FFF7E2F8801B02284DD8D5F87B
:101EB00094309F07F6D40BE7CA6802F00302022AA7
:101EC0007FF47FAF784A1268550502D5E268002A90
:101ED000C0D0754920694A6822F0F85242EA00628F
:101EE0004A60DAE6CA6802F00302032A7FF4AFAE62
:101EF0006D4A126892037FF5CDAE6268002A7FF4C6
:101F0000C9AEA7E7684A136843F480331360FFF74C
:101F1000ADF8654D064604E0FFF7A8F8801B64287D
:101F200013D82B689B03F7D5B3E62A6842F4807276
:101F30002A60FFF79BF807462B68D9053FF5DFAE0F
:101F4000FFF794F8C01B0228F6D9032002B0BDE8C1
:101F5000F081554B1A6842F008021A601A6822F0A4
:101F6000F00202431A605A68E16922F47F4242EAB1
:101F700001225A60FFF752FD00283FF449AE69E79D
:101F80000026B7E6484AD2F8903043F00103C2F881
:101F90009030FFF76BF8444D804641F2883705E0FA
:101FA000FFF764F8A0EB0800B842CED8D5F890301F
:101FB0009A07F5D5002E3FF4CDAE1AE02B6823F436
:101FC00080732B60FFF752F8064604E0FFF74EF8E7
:101FD000801B0228B9D82B685905F7D423685CE622
:101FE0002A6892003FF5C9AEEA6822F00302EA606F
:101FF000C3E62D4A936D23F080539365AAE603F15F
:102000008043A3F53C331A6842F480221A601A68B0
:1020100042F480321A607AE7234BD3F8902042F0E2
:102020000402C3F89020D3F8902042F00102C3F8D4
:102030009020AEE7FFF71AF8064604E0FFF716F81F
:10204000801B022881D82B689F01F7D404F12C0350
:10205000C8CBD4E90E01226C43EA0723741E43EA7D
:1020600004130009490843EA40430139520843EA8E
:102070004153013A43EA4263EB602B680A4C43F058
:1020800080732B60EB6843F08073EB60FEF7EEFF2C
:10209000054605E0FEF7EAFF401B02283FF655AF74
:1020A00023689801F6D57CE600100240564A136872
:1020B00003F007038B420BD2136823F007030B4393
:1020C0001360136803F007038B4201D001207047AF
:1020D00003689A072DE9F04106D54C4C8568A26843
:1020E00022F0F0022A43A260DB0704460E4627D501
:1020F0004368464A022B12687ED0032B59D0002B2E
:102100007FD190072CD5414DAA6822F003021343DA
:10211000AB60FEF7ABFF6368022B074641F28838DD
:102120004FD0032B07D0002B56D160E0FEF79EFF67
:10213000C01B404563D8AB6803F00C030C2BF5D1F2
:10214000314A136803F00703B3420CD9136823F034
:10215000070333431360136803F00703B34202D04D
:102160000120BDE8F08123685A0706D52749E068B9
:102170008A6822F4E06202438A601B0707D5234A7B
:102180002169936823F4605343EAC1039360FFF726
:102190008BFC1E4B1E499B681E4AC3F30313CB5C8A
:1021A00020FA03F300201360FEF730FF0020BDE8A3
:1021B000F0819501A7D4D3E7FEF758FFC01B404537
:1021C0001DD8AB6803F00C03082BF5D1B8E7FEF778
:1021D0004DFFC01B404512D8AB6803F00C03042B25
:1021E000F5D1ADE7FEF742FFC01B404507D8AB680D
:1021F00013F00C0FF6D1A3E7970384D4B0E70320C4
:10220000AFE75105ACD57EE7002002400010024048
:10221000C073000804000020014B1868704700BF1D
:1022200004000020044B054A9B680549C3F30223C0
:102230000868D35CD840704700100240D073000893
:1022400004000020044B054A9B680549C3F3C223E0
:102250000868D35CD840704700100240D073000873
:1022600004000020454AF8B5D4680368A40706D0E6
:10227000D46804F003049C420BD00120F8BD022B6B
:1022800011D0032B56D0012BF7D112689707F4D544
:102290000CE0002CF1D0D3684268C3F30213013381
:1022A0009342EAD10CE012685605E6D5334D4468F6
:1022B000EA6822F073021343013C43EA0413EB6023
:1022C0002E4C236823F0806323600F460546FEF7FB
:1022D000CDFE064604E0FEF7C9FE801B022827D883
:1022E00023681A01F7D4AB68190257BB2369EA685F
:1022F00023F41F3323F440730B43120943EA424390
:1023000023611E4C236843F080632360FEF7AEFE1A
:10231000064604E0FEF7AAFE801B022808D82368C0
:102320001B01F7D5AA692369134323610020F8BD77
:102330000320F8BD1468A503B8D4126854039CD5D3
:10234000B4E7012F0CD022696B6922F0C06222F43D
:10235000FE425B080A43013B42EA43622261D0E746
:1023600023692A6923F4C00323F4FE4352080B4374
:10237000013A43EA42532361C3E700BF0010024021
:102380003D4AF8B5D4680368A40706D0D46804F0C1
:1023900003049C420BD00120F8BD022B11D0032B6B
:1023A00056D0012BF7D112689707F4D50CE0002C1A
:1023B000F1D0D3684268C3F3021301339342EAD1E8
:1023C0000CE012685605E6D52B4D4468EA6822F009
:1023D00073021343013C43EA0413EB60264C236869
:1023E00023F0805323600F460546FEF73FFE064666
:1023F00004E0FEF73BFE801B022827D823689A00E2
:10240000F7D4AB68190257BB6269EB6822F41F323C
:1024100022F440720A431B0942EA43426261164CAD
:10242000236843F080532360FEF720FE064604E055
:10243000FEF71CFE801B022808D823689B00F7D5F6
:102440006A696369134363610020F8BD0320F8BD26
:102450001468A503B8D4126854039CD5B4E7636923
:102460002A6923F0C06323F4FE4352080B43013A68
:1024700043EA42636361D2E7001002402DE9F04372
:10248000036813F4006683B0044617D0416EB1F5BB
:10249000800F00F0BB8140F2EE81B1F5000F00F03B
:1024A000AF81B1F5400F40F0EC81C348D0F88820EF
:1024B00022F440021143C0F888100026D80440F1ED
:1024C0000081A16EB1F1807F00F0878140F2CA8166
:1024D000B1F1007F00F08D81B1F1407F40F0F080DC
:1024E0003746002F40F08381B349A06ED1F8882091
:1024F00022F040720243C1F88820990300F1E58080
:10250000DA0708D5AC49A06BD1F8882022F0030285
:102510000243C1F888209F0708D5A749E06BD1F88E
:10252000882022F00C020243C1F888205D0708D5FC
:10253000A149206CD1F8882022F030020243C1F872
:102540008820180708D59C49606CD1F8882022F0B3
:10255000C0020243C1F88820D90608D59649A06C6C
:10256000D1F8882022F440720243C1F888209A06EC
:1025700008D59149E06CD1F8882022F440620243EA
:10258000C1F888209F0508D58B49E06DD1F88820D7
:1025900022F440220243C1F888205D0508D586490F
:1025A000206ED1F8882022F440120243C1F888201E
:1025B000580608D58049206DD1F8882022F4405271
:1025C0000243C1F88820190608D57B49606DD1F80F
:1025D000882022F440420243C1F88820DA0508D559
:1025E0007549A06DD1F8882022F440320243C1F829
:1025F00088209F0410D57049E06ED1F8882022F021
:1026000040620243B0F1006FC1F8882000F0CE8034
:10261000B0F1806F00F016811D0310D56649206F60
:10262000D1F8882022F040620243B0F1006FC1F877
:10263000882000F0C580B0F1806F00F00B81580356
:1026400010D55D49606FD1F8882022F040620243C6
:10265000B0F1006FC1F8882000F0A380B0F1806F66
:1026600000F0E880590410D55348A16FD0F88820B5
:1026700022F040520A43B1F1805FC0F8882000F098
:10268000A480B1F1005F00F0CC801A0408D54A495B
:10269000E06FD1F8882022F080420243C1F8882000
:1026A000DB0309D5444AD4F88010D2F8883023F0EF
:1026B00000430B43C2F88830304603B0BDE8F083D6
:1026C0000126374699037FF51BAF3B4B9A6DD2002D
:1026D00059D54FF00008394D2B6843F480732B60B7
:1026E000FEF7C4FC814605E0FEF7C0FCA0EB090044
:1026F000022854D82B68DB05F6D5002F40F0C9809E
:102700002D4BD4F88410D3F8902012F4407228D0C6
:102710008A4226D0D3F89000D3F8902042F4803239
:10272000C3F89020D3F8902020F4407522F4803232
:10273000C007C3F89020C3F8905012D51D46FEF78D
:1027400095FC41F28837814605E0FEF78FFCA0EB4F
:102750000900B84223D8D5F890309907F5D5D4F8B8
:102760008410154AD2F8903023F440730B43C2F81A
:102770009030B8F1000F04D00F4A936D23F08053CE
:1027800093652368BCE69A6D42F080529A659B6D12
:1027900003F080530193019B4FF001089BE7032650
:1027A000E7E7CA6842F48012CA605BE7CA6842F48D
:1027B0008012CA6030E700BF001002400070004085
:1027C000CA6842F48012CA6039E70221201DFFF76F
:1027D00049FD68B30646236857E7002104F120004D
:1027E000FFF7CEFD07462368002F3FF47DAE3E463F
:1027F00068E72949CA6842F48032CA60374670E601
:102800002548C26842F48032C2604EE60021203082
:10281000FFF7B6FD06462368002E7FF44FAE616ECB
:1028200043E6022104F12000FFF7AAFD0028D1D1E0
:1028300023682AE70121201DFFF714FD38B306465F
:1028400023680FE70121201DFFF70CFDE8B10646C4
:102850002368E1E60121201DFFF704FD98B106463B
:102860002368ECE600297FF42BAF201DFFF7FAFC6C
:102870002368074635E621B90430FFF7F3FC064626
:10288000C9E701261AE62368D9E62368C4E6236867
:10289000E8E63E466DE700BF00100240F8B504468A
:1028A000B54822682569A3686669E1692B43156804
:1028B000334328400B43034313605368E668AF4833
:1028C000A56923F4405333438242536054D0906847
:1028D000236AAB4E20F430602B430343B242936033
:1028E00000F0C380A74B9A4224D0A74B9A4200F035
:1028F000C480A64B9A4200F09E80A54B9A4213D109
:1029000003F5E033D3F8883003F44073B3F5807FE8
:1029100000F08B8040F28180B3F5007F00F0E98009
:10292000B3F5407F00F0B780B1F5004F00F0CD80E7
:102930000120F8BD03F5E6339648D3F8883003F05C
:102940000C03C35CB1F5004F4AD0082BF0D801A1AD
:1029500051F823F0252A0008F3290008532A00081B
:1029600031290008312A00083129000831290008DE
:1029700031290008092A00089368874923F4306345
:102980002B439360D1F8885005F44065B5F5806F0E
:1029900000F096801BD9B5F5006F00F08E80B5F57C
:1029A000406FC5D108254FF40043626802EB420135
:1029B0009942BDD8B3EB023FBAD8082D00F2D980B6
:1029C000DFE805F0BED7A9D7D4D7D7D7CF00002DE1
:1029D000AED1FFF727FC0346002BE6D10020F8BD5F
:1029E000082B72D8DFE803F09174887194717171CB
:1029F0005A00FFF727FCD4E9002300EB5300B0FB9B
:102A0000F3F080B2D060E9E761684B0803F500435A
:102A1000B3FBF1F39BB2D360E0E7002B84D1B1F5B7
:102A2000004F72D0FFF7FEFBE5E7B1F5004F6FD026
:102A3000FFF73AF8DFE703F5E233D3F8883003F025
:102A4000C003402BF1D0E8D9802B52D0C02B22D02C
:102A50006AE761684B0803F5740303F51053B3FB91
:102A6000F1F39BB2D3600020F8BD4B4B4B48D3F839
:102A7000883003F00303C35C64E703F5E433D3F861
:102A8000883003F03003102BCFD0C6D9202B30D0A4
:102A9000302B7FF449AFB1F5004FB5D163685908C9
:102AA00001F58031B1FBF3F1C1F3420321F00F01D5
:102AB0000B439BB20020D360F8BD0225384B74E76E
:102AC000FEF7F2FF0425034686E700230120F2E724
:102AD000FFF7B8FBD4E900214B0803EB4000B0FB43
:102AE000F1F0C0F3420320F00F0003439BB200203B
:102AF000E1E7B1F5004FACD161684B0803F1F47325
:102B000003F59043B3FBF1F1CEE7FFF78BFBE1E771
:102B1000FEF7CAFFDEE7234D53080026E8184FF002
:102B2000000346F10001FDF7D1FF034600201E4AD5
:102B3000A3F5407191423FF6FBAE2268D360F8BD29
:102B4000FFF770FB62684FF4807356080027E3FBC1
:102B50000067304600233946FDF7B8FF03460020E2
:102B6000E5E75008002610F50000D8E7FEF79CFFC7
:102B7000E8E70120DBE700BFF369FFEF00800040DA
:102B8000003801400044004000480040004C004034
:102B900000500040F472000800100240F07200087B
:102BA0000024F400000024F4FFFC0F00436ADA075D
:102BB00010B406D50168846A4A6822F400322243C0
:102BC0004A609C0706D50168C46A4A6822F48032CC
:102BD00022434A60590706D50168046B4A6822F40B
:102BE000802222434A601A0706D50168446B4A686E
:102BF00022F4004222434A60DC0606D50168846B59
:102C00008A6822F4805222438A60990606D50168B8
:102C1000C46B8A6822F4005222438A605A0609D59E
:102C20000168046C4A6822F480122243B4F5801FC4
:102C30004A600BD01B0606D50268816C536823F4EA
:102C400000230B4353605DF8044B70474A68446CA3
:102C500022F4C00222434A60ECE700BF2DE9F843AA
:102C6000089D80460F4616469946D8F8004001E078
:102C70006B1C0AD1E06937EA00030CBF0120002079
:102C8000B042F5D00020BDE8F8833DB1FEF7EEF983
:102C9000A0EB0900A842E8D9D8F80040236823F443
:102CA000D0732360A368202223F001030021A360D6
:102CB000032088F8692088F8681088F86A20E2E71D
:102CC0002DE9F0410E4690F86910202984B034D1E6
:102CD000002E36D00392A2B31F4690F86830012B25
:102CE00004462AD00023C3660121212380F86810FE
:102CF00080F86930FEF7BAF9039AA4F850208046AC
:102D0000A4F85220B4F85250ADB2434600228021BC
:102D100020462DB3B4F852500097013DADB2A4F84F
:102D20005250FFF79BFFC8B9A3682268B3F5805FD4
:102D30000BD0337813850136E4E7022004B0BDE8F8
:102D4000F081012004B0BDE8F0812369002BF0D1AF
:102D500036F8023BC3F308031385D3E70320EDE7FE
:102D600000972A464021FFF779FF0028F6D120235B
:102D700084F8680084F86930E0E700BF70B5044665
:102D8000002582B0C566FEF771F923681A6812073C
:102D900006460CD41B685B0718D42023002084F857
:102DA000693084F8680084F86A3002B070BD6FF052
:102DB0007E4300932A4603464FF400112046FFF756
:102DC0004DFF78B923681B685B07E6D56FF07E423C
:102DD0000092334600224FF480012046FFF73EFF69
:102DE0000028DAD0032002B070BD00BF90B390F885
:102DF000693010B503F0FF02044603B322682423B0
:102E000084F86930136823F0010313602046FFF74C
:102E100045FD012818D0636AC3B923685A6822F4B3
:102E200090425A609A6822F02A029A601A6842F028
:102E3000010220461A60BDE81040FFF79FBF80F8EE
:102E4000682000F067FCD9E7012010BD2046FFF79D
:102E5000ADFEE2E70120704738B5424B424A1A60A6
:102E6000002501224FF0C044202118465D60C3E9CF
:102E700007411A725A725A62FEF77AFA00286CD128
:102E80003A4B3B4A1A60002501224FF0C0442021F2
:102E900018465D60C3E907411A725A725A62FEF71A
:102EA00067FA002854D1334B334A1A6001201122AB
:102EB00004250A2402211871DA60184600221D62D6
:102EC0009C6219639A60C3E90422C3E906225A622C
:102ED000DA62FEF7BBF9002835D1284B284A1A6080
:102EE0000120112204250A2402211871DA601846F3
:102EF00000221D629C6219639A60C3E90422C3E93F
:102F000006225A62DA62FEF7A1F9B8B90122114627
:102F10001448FEF7A9FA60B901221A491348FEF7CE
:102F2000A3FA00B938BD80211748BDE8384000F049
:102F30000BBB7B21144800F007FBEDE7762112481C
:102F400000F002FBE2E764210F4800F0FDFAC4E75D
:102F500052210D4800F0F8FAA5E746210A4800F092
:102F6000F3FA8DE774050020006101405806002047
:102F700080610140AC060020006001403C0500205B
:102F80002060014002000100047300082DE9F041B7
:102F9000404D2B6886B004460BBB3F4A1368013393
:102FA000012B136025D0042300263C4801A94FF0D3
:102FB00002080627CDE90138CDE903660597FEF73B
:102FC000D3FB41F2020301A935480193CDE9028602
:102FD000CDE90467FEF7C8FB2B6801332B6023683B
:102FE000304A93422ED0304A93420DD006B0BDE80D
:102FF000F0812E4B1A6E42F080721A661B6E03F03F
:1030000080730093009BCEE7294D2A4B2B608022D2
:103010004FF400704FF4006320212A6168614FF47F
:103020008052AB6128460023C5E90712C5E9013388
:10303000EB60FEF7A3FA10BBAC62C4E90A5506B018
:10304000BDE8F0811C4D1D4B2B6080224FF40070B9
:103050004FF4006320212A6168614FF48052AB6114
:1030600028460023C5E90712C5E90133EB60FEF7E6
:1030700085FA48B92368AC62C4E90A55B3E7D5219B
:103080000F4800F061FAD7E7BF210D4800F05CFA65
:10309000F0E700BF200200202402002000080048C2
:1030A00000040048006101408061014000100240BE
:1030B000C8050020580002401006002044000240CD
:1030C00004730008F0B5194C236887B003BB184A95
:1030D00013680133012B13601CD00423002515480D
:1030E00001A902270626CDE90137CDE9035505964A
:1030F000FEF73AFB41F2020301A90F480193CDE923
:103100000275CDE90456FEF72FFB236801332360D7
:1031100007B0F0BD094B1A6E42F080721A661B6E42
:1031200003F080730093009BD7E700BF20020020CC
:10313000240200200008004800040048001002405B
:103140000F4B00B59A6C42F001029A649B6C83B0FD
:10315000002203F00103114601930E20019BFDF7AD
:10316000ABFF0E20FDF7DEFF002211460F20FDF71A
:10317000A3FF0F2003B05DF804EBFDF7D3BF00BF42
:1031800000100240224B10B5DA6C42F00402DA64FF
:10319000DA6C8AB002F004020192019ADA6C42F011
:1031A0008002DA64DA6C02F080020292029ADA6C2F
:1031B00042F00102DA64DA6C02F001020392039A2F
:1031C000DA6C42F00202DA64DB6C03F0020304936F
:1031D000002220214FF090401446049BFEF7D8FBBC
:1031E0000C4B0D48079405A94FF40052CDE9052377
:1031F000FEF7BAFA2022012305A94FF09040CDE94D
:103200000744CDE90523FEF7AFFA0AB010BD00BFB1
:1032100000100240000021100008004830B51421C1
:10322000B9B002234FF48075102407220DEB010082
:103230000593CDE90F331193CDE91433CDE908544B
:10324000CDE91212FEF7AEFC00B1FEE70346032201
:103250000F2404216846CDE902330493CDE90042EE
:10326000FEF724FF034600B1FEE7114A259016A899
:1032700036931692FFF702F900B1FEE74FF40070A3
:10328000FEF794FB044600B1FEE7FEF7C5FF4FF4DE
:103290007A73B0FBF3F0FDF751FF0420FDF768FFF0
:1032A000224621464FF0FF30FDF706FF39B030BD12
:1032B000020001002DE9F04F2DED028B85B0FDF7E6
:1032C000BBFE6E4DFFF7AAFFFFF75CFFFFF738FF6D
:1032D000FFF7C2FD00F0FCF9694802F041F96420F3
:1032E000FDF7CAFE284610226649FEF7DDF800B158
:1032F000FEE7102264496548FEF7D6F80446002828
:10330000F6D1634E634B2A6A1968F368B1FBF3F395
:10331000B3FBF2F36A6AB3FBF2F307EE903ADFF81D
:10332000C4915D48DFED5D8AF8EE677AB6EE008AFB
:10333000C9ED007A02F0A0F8F1685948594E02F040
:103340009BF8296A584802F097F8696A574802F0D2
:1033500093F807EE904AB8EEE70A013420EE280A07
:1033600001F002F8F0EE487AE0EE487A102CE6EC34
:10337000017AEED121464E484E4C9FED4F8ADFF840
:10338000488100F017FA40F6B830FDF775FE4B485B
:10339000444F4B4DDFF83CB102F06EF84FF0140A89
:1033A000484B49484949464A53F8046F07EE106AAA
:1033B00051F8046F07EE906AB8EEC77AF8EEE77A34
:1033C000A342A0EC017AE2EC017AEDD1102342464F
:1033D00039463D4801F03EF810232A463946384820
:1033E00001F038F8002342463749314800F066FAC8
:1033F00000232A4632492E4800F060FA0822594636
:10340000404600F0C9FE08223149284600F0C4FEBB
:1034100008225946B5EE000A2E4800F0E5FF2C4977
:10342000B5EE000A0822084600F0DEFF99ED007AAA
:10343000294BF1EE007A67EE277AC3ED007A67EE4A
:10344000887A17EE900AFDF787F802460B46CDE919
:103450000223204B1869FDF77FF8DDE90223CDE94F
:1034600000011E4802F008F80220FDF705FE1C4A84
:103470000123BAF1010A137092D184E77405002088
:10348000147300082802002028030020580600209A
:10349000AC0600200400002034730008DB0FC93E96
:1034A0004C730008E8040020687300088873000863
:1034B000EC060020640400200000803DA07300089A
:1034C000E803002024040020A80300206404002056
:1034D000C8040020A804002028050020A8730008C4
:1034E00000000020E4060020704700BF0B4B1B7853
:1034F00093B10B4B0B480C490C4A70B403F14006D6
:1035000053F8045F51F8044F40F8045FB34242F8A7
:10351000044FF5D170BC7047704700BF0000002019
:10352000240200202404002024030020640400203E
:1035300010B54FF0FF331446024892B2FFF7C0FBBC
:10354000204610BD04070020FEE700BF224B00B557
:103550001A6E42F001021A661A6E83B002F001027E
:103560000092009A9A6D42F080529A659B6D03F02A
:10357000805301930320019BFDF78CFD002211462F
:103580006FF00B00FDF798FD002211466FF00A0066
:10359000FDF792FD002211466FF00900FDF78CFD4A
:1035A000002211466FF00400FDF786FD002211464F
:1035B0006FF00300FDF780FD002211466FF001005F
:1035C000FDF77AFD002211464FF0FF3003B05DF8A1
:1035D00004EBFDF771BD00BF00100240704700BF53
:1035E000704700BF08B5FDF739FDBDE80840FDF79D
:1035F000CDBD00BF0148FEF769B800BF100600202E
:103600000148FEF763B800BFC805002070B5161E5C
:1036100007DD0C468D19AFF3008004F8010BA542BD
:10362000F9D1304670BD00BF0C4A08B5136833B1FC
:1036300018446946884208D81060184608BD084BEF
:103640001360184469468842F6D901F087FA0C23C2
:1036500003604FF0FF33184608BD00BF2C05002063
:10366000780700204FF0FF30704700BF4FF4005341
:103670004B600020704700BF01207047002070475A
:103680001149124BD1F8882042F4700210B4C1F8ED
:1036900088201A68002042F001021A6098601A68B7
:1036A00022F0A85222F410224FF480541A60DC60F9
:1036B0001A684FF0006422F480221A6098618C60CE
:1036C0005DF8044B704700BF00ED00E000100240C1
:1036D0000D4B0E4A10B50C211A604FF4E134002254
:1036E00018465C605961C3E902221A61C3E90622E7
:1036F000C3E90822FFF77AFB00B910BD4421044852
:10370000BDE81040FFF720BF040700200044004040
:10371000087400080268114B9A4200D0704703F504
:10372000E63370B59A6D42F400329A659B6D86B0AF
:1037300003F400330C200093032207230190022599
:10374000002401A94FF09040009ECDE90254CDE93C
:103750000423FEF709F806B070BD00BF0044004026
:10376000DFF834D0002103E00C4B5B5843500431A8
:103770000B480C4B42189A42F6D30B4A02E0002346
:1037800042F8043B094B9A42F9D3FFF779FF01F065
:10379000EBF9FFF78FFDFEE70080012058B3010829
:1037A00000000020E0010020E00100207807002058
:1037B000FEE700004B08802B10B40182038047D045
:1037C00017D9B3F5007F3DD029D9B3F5806F20D04C
:1037D000B3F5006F13D12149214A224B4FF46E6497
:1037E0008481816042604361002040B25DF8044BF7
:1037F0007047202B1CD0402B06D0102B1DD0FF2053
:1038000040B25DF8044B704738241749174A184BEB
:10381000E6E74FF4E1641749174A184BE0E7B3F5C0
:10382000807FECD14FF4DC741549164A164BD7E76C
:1038300030241649164A174BD2E714241649174A62
:10384000174BCDE74FF4E0741649174A174BC7E7FB
:10385000D0241749174A184BC2E700BF246A010851
:103860001874000888D5000818B50008E487010816
:10387000D4AC0108083F0108081E010888B50008FB
:1038800064A9010888150108E4890108C04D0108F0
:10389000083E010818B40008184D0108881D0108E9
:1038A000404D0108E4910108245A0108649501087B
:1038B000D4AE01082456010864A501082DE9F041A1
:1038C000068A76080746154606800C46002B5CD112
:1038D0001A46012300F0E6FBD4ED007A94ED017A5C
:1038E0003E88786937EE077A77EEA77AF6EE003AE7
:1038F00077EE876A77EEC77A013E26EEA37A67EE07
:10390000A37A04EBC60385ED007AC5ED017A103089
:1039100005F11002083B04F1100151ED024A93ED4C
:10392000025A11ED017A10ED026AD3ED035A50EDFF
:10393000016A75EE647A35EE874A35EE245A77EEE1
:10394000655A66EE274A26EEA77A34EE855A26EEA9
:10395000046A66EE846A77EE257A76EE856A77EEFB
:10396000C67A66EEA36A67EEA37A013E42ED026A6A
:1039700042ED017AA3F1080301F1080100F108000A
:1039800002F10802C9D1BDE8F081D1ED007AD1ED94
:10399000016A416937EEA67A77EEE67AF6EE003AEA
:1039A00027EE237A67EEA37A013E82ED007AC2ED1C
:1039B000017AF000EEB3083801F1100E204404F152
:1039C000100102F1100C90ED027A51ED026A1EED29
:1039D000026A90ED034A11ED015A5EED015A76EE4E
:1039E000C77A74EE054A26EE273A77EE266A35EE58
:1039F000445A25EEA77A76EEC36A77EE057A26EE6C
:103A0000246A65EEA45A77EEC67A36EEE57A67EE5A
:103A1000A37A27EE237A013E0CED027A4CED017A6F
:103A2000A0F1080001F108010EF1080E0CF1080CDC
:103A3000C9D1384629461A46BDE8F041012300F0B5
:103A400031BB00BF2DE9F0412DED088BB0F800E04F
:103A500042684FEA5E0C01EB8E085FEADE0E074615
:103A60004FEA8C0300F0AF801033CE18103243447D
:103A700001F1100508F1100454ED041A13ED044A85
:103A800053ED033A53ED025A13ED015A54ED036A14
:103A900014ED020A16ED042A56ED032A15ED036A09
:103AA00015ED017A15ED043A54ED017A56ED020A4E
:103AB00016ED011A55ED024A73EE21BA36EE26BA1A
:103AC00037EE27AA72EE049A32EEA39A31EE058AF7
:103AD00074EE80AA70EEA58A45ED04BA05ED03BA2E
:103AE00045ED02AA05ED01AA06ED018A46ED049A0C
:103AF00006ED039A46ED028A76EE666A73EEE23AC6
:103B000012ED036A52ED042A33EE613A34EE424A72
:103B100026EE868A24EE062A63EE221A24EE224A34
:103B200023EE063A66EEA26A23EE866A63EEA23AB6
:103B300036EE046A76EEC36A72EE633A71EE882A54
:103B400044ED036A44ED042A43ED043A03ED036AAD
:103B500077EE677A75EEE06A12ED017A52ED025A5D
:103B600035EE416A74EEC04A67EE873A26EE875A10
:103B700024EEA54A67EEA57A64EE874A66EEA56A4A
:103B800026EE077A26EE256A77EEE47A74EE235A5B
:103B900035EE466A37EE267ABEF1010E44ED025A42
:103BA00005F1100544ED017A06F1100603ED026AF5
:103BB00003ED017A02F1100204F1100403F1100385
:103BC0007FF45AAF7A681FFA8CF408460223214624
:103BD00000F086FCBDEC088B404621467A68022343
:103BE000BDE8F04100F07CBC2DE9F04F2DED0A8BD3
:103BF000028891ED006A8FB00F46520893000C9036
:103C00000391416897ED017A3846184406460990B9
:103C10001844D0ED006AD6ED003AD6ED012AD0ED79
:103C2000017A0A9076EE265A044625461C4494ED05
:103C3000004A94ED015A019475EEA34A304674EEA1
:103C4000244A3E4614EE90EA76EE666A46F808EBA1
:103C500037EE276AD0ED014A049677EE677A019E27
:103C600032EEA63A96ED012A36EE247A75EEE35A44
:103C700077EEE34A36EE626A77EEA37A76EEE26A90
:103C800073EE453A044636EE456A75EE266AA3465B
:103C900037EE027A34EE845A13EE908AA44675EE1B
:103CA000C45A87ED017A4BF8088BACF104078CED10
:103CB000015A01F1080C2C46CDF814C015EE90CA3B
:103CC00044F808CB079401F1100485ED016A52080D
:103CD00002942C4601F118050B92B246069577EE38
:103CE000C47A023A16EE905AB646304652084AF85E
:103CF000085BA0F10406CEED017A089200F0308155
:103D00009146039ADDF80880CDF834A0083B02F113
:103D1000100501F1200CA4F10C0201F1300E334426
:103D200010345046594655ED023A14ED025A91EDC1
:103D3000007AD0ED007A15ED014A54ED015AD0ED2C
:103D4000016A91ED016A33EE858A34EE250A78EE38
:103D5000074A74EE655A77EEA44A33EEC55A45ED2C
:103D6000024AD1ED014A90ED014A70EE244A76EE06
:103D700005AA74EE844A35EEC7AA45ED014AD6ED90
:103D8000001AD7ED000A92ED024AD3ED023A93ED04
:103D9000012A16ED011AD2ED012A57ED019A70EEB3
:103DA000A14A39EE813A74EE848A70EEE11A73EE1C
:103DB000A88A7AEEE6AA18EE90AA47F808A9D2EDEA
:103DC000018A93ED019A73EE288A3AEE27AA78EEDB
:103DD000898A74EE630AC7ED018A18ED02BA58EDBC
:103DE000018A39EEC11A6AEE28BA2AEE8BCA71EE40
:103DF000E29A30EE819A79EE829A3CEE2BCA6AEE14
:103E0000A8AA69EEA8BA2AEE0BAA69EE8B9A69EE07
:103E1000288A29EE0BBA1CEE10AA78EEA98A41F87E
:103E200008AB3AEE6AAA3BEECBBA34EEC44A33EEA4
:103E3000623A01ED01AAC2ED018A82ED02BA5CED9F
:103E4000044A74EE633A38EE478A1CED034A30EEBA
:103E5000460A33EE423A38EE678A30EE660A23EEBF
:103E6000E49A63EE048A28EE24AA60EE049A28EE0F
:103E7000048A20EE240A63EE843A39EE684A7AEE28
:103E8000299A14EE10AA30EE480A63EE244A44ED53
:103E9000029A73EEE43A04ED010A46F808A935EEF9
:103EA000466A35EE877AC6ED013A76EE866A77EE97
:103EB000677A1EED056A1EED067A67EE865A26EED3
:103EC000875A72EE622A30EEC11A72EEE12A75EE5E
:103ED000255A62EE860A66EE866A67EE877A21EEDA
:103EE000066A62EE872A21EE071A15EE90AA77EE8F
:103EF000E67A40F808AB30EEC11A76EE222AB9F124
:103F0000010940ED017A05F1080583ED021AC3EDC0
:103F1000012A08F10808A2F108020CF1100C04F1C2
:103F200008040EF1180EA3F108037FF4FCAE089903
:103F30000298DDF834A0CB0001EB410200EB011147
:103F4000029104991944049105991944059107991E
:103F50009B4419449A44069B079103EBC2030693C2
:103F6000049A0798D2ED003A90ED004ADBED007A12
:103F70009AED003AD2ED014A90ED017A9BED012ACB
:103F8000DAED015ABDF82C400C9E73EE846A34EED3
:103F9000876A36EEA75A34EEC77A33EE055A33EE07
:103FA000C44A82ED005A9BED015ADAED014A36EE21
:103FB000055A72EE043A35EE245A77EE674A82EDDE
:103FC000015A059A34EE835AD2ED001AD2ED012A35
:103FD000029A73EEE53A36EE426A63EEA14A63EE68
:103FE000A23A65EE222A25EE215A74EEA22A35EE77
:103FF000635A76EEE76ACBED002A8BED015AD2EDDB
:10400000013A92ED005A069A76EEC36A36EE656A78
:1040100066EE854A26EE055A66EEA36A26EE236A08
:1040200075EE666A34EE866A34EE424A37EE277AD7
:10403000C0ED016A80ED006A92ED016A039877EEA7
:10404000437A75EE845A92ED007A65EE876A27EE20
:10405000877A65EE865A67EE867A77EE655A76EE4F
:10406000A77ACAED015ACAED007A72682146042384
:1040700000F036FA099872682146042300F030FAFD
:104080000A9872682146042300F02AFA019872689F
:10409000214604230FB0BDEC0A8BBDE8F04F00F0C1
:1040A0001FBA00BF2DE9F041012A064617460C460B
:1040B0009846058854D0B5F5807F4CD016D9B5F513
:1040C000806F1AD05CD9B5F5006F44D0B5F5805F2C
:1040D00005D1204629467268012300F001FAB8F1A3
:1040E000000F11D1012F16D0BDE8F081202D32D064
:1040F0004AD9402DEDD0802DF1D130462146FFF731
:10410000A1FCB8F1000FEDD02046B189B268FCF7F0
:104110005FF8012FE8D107EE905AF8EE676AF7EEE4
:10412000007AC7EEA66A002DDED004F10801002354
:1041300001339D4201F1080111ED047A51ED037A3A
:1041400027EE267A67EEE67A01ED047A41ED037AEE
:10415000EED1BDE8F08130462146FFF745FDBEE7D0
:10416000ADB101F10C03002253ED027A0132F1EE00
:10417000677A954243ED027A03F10803F4D19AE796
:10418000B5F5007FA5D0AAE7102DB6D0A7E7B5F505
:10419000807F94D8AAE700BF2DE9F0415FEA92083A
:1041A00084B07FD0002700F1200401F110054646BD
:1041B0005AE0B1EEE70AB4EE400AF1EE10FA40F030
:1041C000A48005ED040A54ED067A14ED050A67EEA5
:1041D000A77A20EE000A77EE807AF5EEC07AF1EE4B
:1041E00010FAC0F28F80B1EEE70AB4EE400AF1EEA9
:1041F00010FA40F0AF8005ED030A54ED047A14ED97
:10420000030A67EEA77A20EE000A77EE807AF5EED1
:10421000C07AF1EE10FA72DBB1EEE70AB4EE400AB2
:10422000F1EE10FA40F08C8005ED020A54ED027AAE
:1042300014ED010A67EEA77A20EE000A77EE807A85
:10424000F5EEC07AF1EE10FA20DBB1EEE70AB4EE3B
:10425000400AF1EE10FA69D1013E05ED010A04F1C0
:10426000200405F1100519D054ED087A14ED070A61
:1042700067EEA77A20EE000A77EE807AF5EEC07A34
:10428000F1EE10FA95DA45F8107C9CE7013E45F80E
:10429000047C04F1200405F11005E5D100EB481081
:1042A00001EB081112F0030526D0002600F10804E6
:1042B0000CE0B1EEE70AB4EE400AF1EE10FA2ED1AE
:1042C000013D01ED010A04F1080415D054ED027A14
:1042D00014ED010A67EEA77A20EE000A043177EEAA
:1042E000807AF5EEC07AF1EE10FAE2DA013D41F89B
:1042F000046C04F10804E9D104B0BDE8F08145F88C
:10430000087C93E745F80C7C77E7B0EE670A0392E8
:104310000291019000F0C6FB01A807C851E7B0EE7A
:10432000670A019100F0BEFB0199C9E7B0EE670A88
:1043300003920291019000F0B5FB01A807C88BE73A
:10434000B0EE670A03920291019000F0ABFB01A866
:1043500007C869E7B0EE670A03920291019000F086
:10436000A1FB01A807C846E7DFED1C7A20EE270A6B
:10437000F5EE007A30EE270AB5EEC00AF1EE10FA3B
:10438000FDEEC07A04D517EE903A013B07EE903A65
:10439000F8EEE77ADFED126A124A30EE670AB7EEFE
:1043A000007A20EE260AFCEEC07A17EE903AC3F3AC
:1043B000080307EE903AF8EE677A02EB830170EE9D
:1043C000677AD1ED016A91ED000A37EE677A67EE00
:1043D000A67A27EE000A30EE270A704783F9223EBC
:1043E00000000044204E010870B4960825D000F16A
:1043F000100401F11003354614ED046A54ED036A0C
:1044000014ED027A54ED017A26EE006A66EE806AB7
:1044100027EE007A67EE807A013D03ED046A43EDF2
:10442000036A03ED027A43ED017A04F1100403F10B
:104430001003E1D136013044314412F0030207D0B9
:10444000F0EC017A67EE807A013AE1EC017AF7D17B
:1044500070BC7047F0B55FEA930E33D000F11006E0
:1044600001F1100502F11004774616ED046A55EDCE
:10447000044A56ED026A15ED025A16ED037A55ED1F
:10448000035A56ED017A26EE246A66EE856A04ED3B
:10449000046A15ED016A44ED026A27EE257A67EE9B
:1044A000867A013F04ED037A44ED017A06F11006A5
:1044B00005F1100504F11004D7D14FEA0E14204481
:1044C0002144224413F0030309D0F0EC017AB1EC4B
:1044D000017A67EE877A013BE2EC017AF5D1F0BD13
:1044E0002DE9F04F2DED108B9DB01C469FEDC8BA05
:1044F0001A92031D824689468B461B9300949E4662
:104500004FEADB035A00D618F51803925A19D0184F
:10451000DF0019183C46019757440C930AEBC2027E
:104520001B010AEBC10107EB040C009C02930AEB90
:10453000C6060AEBC505043204310AEBC0004FEA97
:10454000CB034FF00008DCED007AD7ED006AD6ED22
:10455000003A5EED01AAD5ED004A90ED002A12ED79
:10456000017A51ED010A77EE828A33EEA04A76EEA7
:10457000871A3AEEA43A31EE846A33EE285A36EEC0
:10458000C77A75EE066A35EE465A4EED016A85ED3C
:10459000005A96ED011AD7ED015A92ED00AA91ED5D
:1045A000006A9EED009A95ED015ADCED016AD0EDAE
:1045B000019A73EEE00A71EE462A75EECA3A37EEBA
:1045C000600A33EEA28A37EE207A73EEE22A37EEE3
:1045D000C22A79EE053A60EE0B0A39EE455A7AEEB8
:1045E000E44A36EEA99A75EE8A5A31EE066A76EEFC
:1045F000E96A28EE0B8A62EE8B2A67EE0B7A33EEBD
:10460000683A36EE880A75EE868A36EEC87A71EE1A
:10461000C41A75EE626A33EEC94A35EEC66A33EEE5
:10462000891A74EEE05A74EEA03A75EE224A32EE20
:10463000275A72EE677A33EE068A75EE872A31EED4
:10464000289A33EE466A74EE610A33EE802A35EE1C
:10465000C77A34EEC53A76EEE75A31EE681A34EE90
:10466000214A73EEC03A74EE854A76EEA76AD844C2
:10467000C1458EED009A85ED011A9E448CED008AAD
:104680001D4480ED006ACCED010A80ED014A9C4496
:1046900087ED002A184441ED013A42ED012A86EDEA
:1046A000007A87ED013AC1ED004A1F44C2ED005A7D
:1046B0001944C6ED016A1A441E443FF644AF0C99F2
:1046C0000729204640F2E98104EB44073E193519D9
:1046D000039C00902246013202EB810200992818C7
:1046E00000EB010E0C990A4404EB010C4FEACE04D6
:1046F0000AEBC20E009A0F94ED001195D5000D95AE
:10470000019D08351695029D0835140117950F9ADD
:104710001A9D0E94C0001090AA180792109A0C9C33
:10472000AA180892119AAA18099201EB81010EF1B8
:1047300004020A92C9000D9A0C31F6004FEACC002F
:104740001491A9180E9A1296FF00AE1908304FEA7C
:104750000C1C06961990AA186401EE190CF10C00B5
:104760001397049615900391059204F1080218928C
:104770004FF00108002202F108010F460B91189931
:104780008E1816998D1817998C18199988181499DC
:1047900001EB020C15990A440399D1ED00FA059931
:1047A00091ED00FA0499D1ED00EA069991ED00EA45
:1047B0000999D1ED00DA089991ED00DA0799D1ED68
:1047C00000CA039991ED01CA0599D1ED01BA049986
:1047D000D1ED01AA069991ED01AA0999D1ED017ACD
:1047E0000899CDED007AD1ED017A0799CDED017AE6
:1047F000D1ED017A0AEB070E0A9FCDED027A0CEBA0
:104800000A0156445544544450445244C44601E0BD
:10481000F304353F96ED005A52ED019A11ED016A0D
:10482000D0ED007A17ED017ADEED003A94ED003A12
:1048300095ED002A9EED010A33EE858A32EE061AC6
:1048400033EE294A77EE874A78EE041A71EE246A2D
:1048500032EE462A31EEA66A77EEC77A8EED006A0E
:10486000D0ED018A95ED019AD1ED002A97ED007AFD
:10487000D4ED010A96ED016AD2ED005A73EEC53A05
:1048800033EE693A39EE625A78EEC79A38EE444A06
:1048900038EE877A30EEA58A79EE222A75EE698A9B
:1048A00032EE279A35EE295A72EE677A30EE062AF2
:1048B00069EE0B9A70EEE55A32EE089A68EE8B8A32
:1048C00032EE482A71EE644A25EE0B5A32EE871A10
:1048D00067EE8B7A72EEC72A30EE466A73EE290ACB
:1048E00036EE280A33EE693A32EE647A73EEA79A0E
:1048F00036EE686A73EEE77A75EE858A74EE223AD0
:1049000035EEC55A71EEE66A79EE411A39EEA88A9B
:1049100076EE435A74EE622A72EE244A30EE604A12
:1049200079EEE88A30EE200A77EE859A36EE036A51
:1049300077EEC57A2EEE212A2EEE265A6FEE230A46
:104940002AEE213A39EE011A6AEE266A2BEE879A90
:104950006BEEA33A2FEE077A6FEE841A35EE033A28
:1049600072EE666A2CEE045A2FEE882A9DED024AFA
:104970008EED011A77EE633A2CEE088A9DED017AEE
:1049800086ED003A30EE899A32EE052A6DEE220A63
:1049900031EEC88A67EE222A64EE001A27EE247AE6
:1049A0002CEEA85A6DEE244A64EE288A9DED004A4A
:1049B000C6ED016A74EEE22A6DEEA94A64EE299A08
:1049C00024EE254A30EE877A74EE844A6EEEA70A0A
:1049D0002AEE864A2CEE800A6DEEA55A6AEEA77A78
:1049E0002EEE866A75EE211A30EE680A75EEE99AA7
:1049F00070EE840A36EE676ADC44E14584ED009A85
:104A0000C4ED013A9E4402ED017AC2ED002A1E4433
:104A100085ED002A85ED018A1C4447ED011A87EDDA
:104A2000000A1A4441ED014AC1ED009A1D44C0ED4F
:104A3000000A1F4480ED016A194418443FF6EAAEAB
:104A4000039A0D990A4403920E99059A0A44059215
:104A50001399049A0A4404921299069A0A440692F7
:104A60001199099A0A4409921099089A0A440892DD
:104A70000F99079A0A4407920C990A9A08F10108BB
:104A8000083288450A920B9A7FF475AEBDF834302F
:104A90000093C346DDF86CE032E51DB0BDEC108B31
:104AA000BDE8F08F10B52DED028B8AB0B0EE408AD4
:104AB00000F04EF8244B93F90040631C09D0B4EE8B
:104AC000488AF1EE10FA04D6B5EEC08AF1EE10FA7B
:104AD00003D40AB0BDEC028B10BD01231B4A009326
:104AE00018EE100A002301920893FBF735FD00220F
:104AF000CDE90401CDE902010023BCB110461946FD
:104B0000FBF7ACFE022CCDE9060111D100F026F82E
:104B100021230360089B8BB9DDE90601FBF786FFC3
:104B200000EE100A0AB0BDEC028B10BDCDE90623E1
:104B3000684600F011F80028ECD1E7E700F00EF825
:104B4000089B0360E8E700BF0800002074B001087C
:104B5000B1EEC00A704700BF00207047014B1868D3
:104B6000704700BF0C00002070B50D4E0D4CA41B0B
:104B7000A4100025A54209D10B4E0C4C02F0AAFB53
:104B8000A41BA4100025A54205D170BD56F8253000
:104B900098470135EEE756F8253098470135F2E79A
:104BA00048B3010848B3010848B301084CB30108F1
:104BB00002440346934200D1704703F8011BF9E712
:104BC0002DE9FF4755EC104B0D9FDDF830A0002D6F
:104BD0000E4691461946B8BF22462B4627F02007BD
:104BE000BBBF05F100431D4600232D23B8BF14466B
:104BF000462F0B7004D0452F00D10136022100E072
:104C0000032103AB019302AB00933246534645ECBC
:104C1000104B00F0F9FD472F804602D119F0010F2B
:104C200026D0462F08EB060911D198F80030302B1A
:104C30000AD10022002320462946FCF777F918B94B
:104C4000C6F10106CAF80060DAF800309944002283
:104C5000002320462946FCF769F938B93022039B26
:104C60004B4505D2591C03911A70F8E7CDF80C900A
:104C7000039B0E9AA3EB08034046136004B0BDE803
:104C8000F087F7B500290446BABF49422D232B23EC
:104C9000092904F8022B437020DD0DF107031F469C
:104CA0000A2691FBF6F506FB15113031092D03F8A4
:104CB000011C03F1FF32294609DC3031023B02F8C6
:104CC000011CBB42224604D3101A03B0F0BD1346A8
:104CD000E7E713F8012B04F8012BF2E7302319441E
:104CE0008370021DC170EFE72DE9F04F8DB00C46C7
:104CF000DDF8588016461F46054601F0B7FC0368EC
:104D000004931846FCF762F800230A93D8F80030A1
:104D10000590073323F0070303F1080294F818A065
:104D2000D4F800B0C8F80020D3E90023C4E9122366
:104D3000D4E9128929F000430793CDF818804FF089
:104D4000FF32A74BDDE90601FCF722F970BB4FF0FB
:104D5000FF32A34BDDE90601FCF7FCF830BB002273
:104D6000002340464946FCF7EBF810B12D2384F8A8
:104D700043309C4A9C4BBAF1470F8CBF90469846F3
:104D800003232BF00402236122604FF000090097F7
:104D900033460BAA2146284600F0E6F9013040F0E0
:104DA0008D804FF0FF300DB0BDE8F08F42464B468E
:104DB00040464946FCF7ECF810B18C4A8C4BDAE7D8
:104DC00061684B1C4BF480620AA83ED106236360E5
:104DD0000023CDE9020309AB009349EC108B0DF1E0
:104DE00023032260CDF804A061682846FFF7E8FE9F
:104DF0000AF0DF03472B804609D1099BD81C02DB50
:104E00006268934247DDAAF1020A5FFA8AFABAF1B0
:104E1000650F099924D80139524604F150000991CF
:104E2000FFF72FFF0A9A1318012A8146236102DC3B
:104E30002268D10701D5013323619DF82330002B6F
:104E4000A5D02D2384F84330A1E7BAF1670F00F015
:104E50007781BAF1470FBBD10029B9D10123B6E759
:104E6000BAF1660F19D1002963680CDD216113B90D
:104E70002268D20702D501330B442361099BA36545
:104E80004FF00009D9E713B92268D00701D50233E2
:104E9000F3E70123F1E74FF0670ADDE909329342B6
:104EA00005DB22682361D107E8D50133E5E7002B54
:104EB000D4BFC3F1020301231344DEE723685A057C
:104EC00007D42369424631462846B84701302BD1E2
:104ED00067E7BAF1650F40F2DC8000220023D4E9D5
:104EE0001201FCF723F8002833D00123414A314650
:104EF0002846B84701303FF454AFDDE909239A4210
:104F000002DB2368D8070FD5DDE9042331462846A4
:104F1000B84701303FF445AF4FF0000804F11A09DB
:104F20000A9B013B434509DC23689B0700F1038191
:104F3000E0680B9B9842B8BF184634E701234A4605
:104F400031462846B84701303FF42BAF08F101083D
:104F5000E6E7099B002B2BDC0123264A3146284635
:104F6000B84701303FF41DAF099B23B90A9B13B921
:104F70002368D907D8D5DDE9042331462846B84748
:104F800001303FF40EAF4FF0000904F11A0A099BFB
:104F90005B424B4501DC0A9B94E7012352463146B4
:104FA0002846B84701303FF4FCAE09F10109EEE7AD
:104FB0000A9AA36D9A42A8BF1A46002A914607DDB5
:104FC0001346314642462846B84701303FF4E9AE21
:104FD00004F11A034FF0000B29EAE979069315E072
:104FE000FFFFEF7F84B0010880B001088CB001089A
:104FF00088B0010890B001080123069A314628467E
:10500000B84701303FF4CDAE0BF1010BD4F858A0F6
:10501000AAEB09035B45EFDCDDE909239A42D044A2
:1050200015DB2368DA0712D40A9B0999A3EB0A025D
:10503000A3EB010A9245A8BF9246BAF1000F0EDC1D
:105040004FF000082AEAEA7A04F11A0919E0DDE9CA
:10505000042331462846B8470130E5D1A1E653463E
:10506000424631462846B8470130E9D199E6012346
:105070004A4631462846B84701303FF492AE08F11F
:105080000108DDE909239B1AA3EB0A034345EEDC83
:105090004AE70A9A012A01DCDB073AD50123424696
:1050A00031462846B84701303FF47BAEDDE90423A2
:1050B00031462846B847013008F101083FF471AE87
:1050C0000A9B002203F1FF3AD4E912010023FBF707
:1050D0002DFFC8B95346424631462846B8470130ED
:1050E0000ED15EE60123524631462846B8470130CC
:1050F0003FF457AE08F101080A9B013B4345F1DC40
:105100004B4604F15002DEE64FF0000804F11A0AA3
:10511000F2E70123DFE701234A4631462846B84734
:1051200001303FF43EAE08F10108E3680B9A9B1A88
:105130004345F0DCFCE64FF0000804F11909F4E700
:1051400000293FF48BAE0023CDE9020309AB0093A5
:1051500049EC108B2260CDF804A00DF12303284602
:10516000FFF72EFD804648E62DE9F04791461F46A1
:105170008A680B69DDF820809342B8BF1346C9F8EE
:10518000003091F8432006460C4612B10133C9F8AD
:1051900000302368990642BFD9F800300233C9F8BD
:1051A0000030256815F0060507D104F1190AE368F7
:1051B000D9F800209B1AAB4228DC94F843302268CF
:1051C000003318BF012392062DD404F1430239465F
:1051D0003046C047013020D02368E568D9F8002068
:1051E00003F00603042B08BFAD1AA36822690CBFA5
:1051F00025EAE57500259342C4BF9B1AED184FF0D0
:1052000000091A344D451AD1002008E00123524606
:1052100039463046C047013003D14FF0FF30BDE87A
:10522000F0870135C3E7E1185A1C302081F84300AC
:10523000224494F8451082F843100233C5E7012355
:10524000224639463046C0470130E6D009F101090F
:10525000D8E700002DE9F04301F1430C0C46097E2C
:1052600085B06E291746064698460C9A00F0B38022
:1052700022D8632936D00AD8002900F0B9805829ED
:1052800000F0838004F1420584F8421032E0642982
:1052900001D06929F6D120681368050603F10401DD
:1052A0002AD51B681160002B03DA2D225B4284F89B
:1052B00043206F480A2239E0732900F09D8008D806
:1052C0006F2920D07029DDD1236843F020032360AB
:1052D00003E0752917D07829D4D1782384F8453094
:1052E000644855E01368191D1B68116004F14205FC
:1052F00084F8423001238CE01B68116010F0400FED
:1053000018BF1BB2CFE713682568181D1060280668
:1053100001D51B6802E06806FBD51B8854486F293D
:1053200014BF0A220822002184F843106568A56092
:10533000002DC0F29580216821F004012160002B2E
:105340003DD1002D40F08E806546082A0BD12368A0
:10535000DB0708D5236962689A42DEBF302305F86F
:10536000013C05F1FF35ACEB05032361CDF800806E
:105370003B4603AA21463046FFF7F6FE01304DD1E9
:105380004FF0FF3005B0BDE8F083394884F8451090
:10539000136821681D1D1B6815600A060BD5CA0716
:1053A00044BF41F0200121601BB9226822F0200295
:1053B00022601022B7E74D0648BF9BB2EFE7654673
:1053C000B3FBF2F102FB1133C35C05F8013D0B4660
:1053D0000029F5D1B9E7136825686169181D1060C7
:1053E00028061B6801D5196002E06A06FBD5198002
:1053F000002323616546B9E71368191D11601D6814
:10540000626800212846FBF7EBFC08B1401B606096
:1054100063682361002384F84330A7E723692A46A1
:1054200039463046C0470130AAD023689B0713D4C1
:10543000E068039B9842B8BF1846A3E701234A4699
:1054400039463046C04701309AD00135E368039AA7
:105450009B1AAB42F2DCEBE7002504F11909F5E7F2
:10546000002BACD1037884F8423004F142056CE79C
:1054700092B00108A3B001080FB40A4B13B51C6821
:1054800024B1A36913B9204601F066F805AB049A6C
:10549000A1680193204601F029FD02B0BDE810404B
:1054A00004B070470C00002070B50E46054618B1D8
:1054B00083690BB901F050F8AB69AC6813B92846A1
:1054C00001F04AF8234B9C4217D16C68A3891B0753
:1054D0001DD52369DBB1013EA36816F8011F013B0E
:1054E000A360E9B9002B2EDA22460A21284600F0F3
:1054F0003FF8013011D00A2011E0174B9C4201D136
:10550000AC68E3E7154B9C4208BFEC68DEE7214638
:10551000284600F07FF80028DDD04FF0FF3070BD46
:10552000002B04DAA2699A4206DC0A2904D0236817
:105530005A1C22601970CFE72246284600F018F85E
:105540000130C9D1E9E723680A205A1C226018708B
:10555000E5E700BFE4B0010804B10108C4B00108E8
:10556000024B01461868FFF79FBF00BF0C000020E8
:10557000F8B50E461446054618B183690BB900F01C
:10558000EBFF214B9C422AD16C68A369A360A389DD
:105590001A072ED5236963B323692068C01A63698B
:1055A000F6B28342374604DC2146284600F06AFF03
:1055B00028BBA368013BA36023685A1C22601E70AD
:1055C00063690130834204D0A389DB0719D50A2E11
:1055D00017D12146284600F055FF90B10FE00B4B44
:1055E0009C4201D1AC68D0E7094B9C4208BFEC68F3
:1055F000CBE72146284600F00DF80028CCD04FF02C
:10560000FF373846F8BD00BFE4B0010804B1010817
:10561000C4B00108324B70B51D6806460C4625B172
:10562000AB6913B9284600F097FF2E4B9C420FD16F
:105630006C68B4F90C309AB215072CD4D00611D48A
:105640000922326043F04003A3814FF0FF303EE077
:10565000254B9C4201D1AC68EBE7244B9C4208BF30
:10566000EC68E6E7510712D5616B41B104F14403E0
:10567000994202D0304601F067FB00236363A3899F
:1056800023F02403A3810023636023692360A3899B
:1056900043F00803A38123694BB9A38903F4207362
:1056A000B3F5007F03D02146304601F011F8A289FE
:1056B00012F001030CD00023A36063695B42A36175
:1056C000236953B9B4F90C3013F08000BAD170BD1E
:1056D000920758BF6369A360F2E70020F7E700BFB5
:1056E0000C000020E4B0010804B10108C4B00108B6
:1056F0002DE9F74F03690C69A3428046C0F282800E
:10570000013C01F114074FEA840C00F1140657F82C
:10571000245056F8240006EB0C03013507EB0C0966
:105720000193B0FBF5F595B34FF0000A3846B64645
:10573000D34650F8042B93B205FB03A34FEA134A58
:105740009BB2ABEB0303120CDEF800B005FB02A228
:1057500013FA8BF34FEA124A1FFA82FBDEF800209D
:10576000CBEB124202EB23429BB243EA0243814558
:105770004FEA224B4EF8043BDBD256F80C3033B9DB
:10578000019B043B9E421A4630D3C8F81040404665
:1057900001F006FA002825DB013530464FF0000CF9
:1057A00057F8042BD0F800E093B2ACEB0303120CD3
:1057B00013FA8EF3C2EB1E4202EB23429BB243EA82
:1057C0000243B9454FEA224C40F8043BE8D256F870
:1057D000242006EB84032AB9043B9E421A460BD3CD
:1057E000C8F81040284603B0BDE8F08F1268043BAB
:1057F000002ACAD1013CC5E71268043B002AEFD158
:10580000013CEAE70020EEE72DE9F04F57EC106B82
:1058100097B0456A069104460B921293DDF880809A
:10582000CDE900673DB9102000F092FF6062C0E949
:1058300001550560C560636A196851B15A684A60CC
:10584000012393408B60204600F0C9FF636A002269
:105850001A603B1EBBBF23F00043019300230122CB
:10586000ACBFC8F80030C8F80020AF4BDDF80480AA
:1058700033EA080314D1129A42F20F731360009BAB
:1058800023B9C8F31300002800F04285219BDFF8FC
:10589000ACB2002B00F044850BF1030300F03EBDD9
:1058A000DDE900670022002330463946FBF73EFB66
:1058B000814668B1129A01231360219B002B00F0EE
:1058C00024859A4B219A03F1FF3B136000F028BD19
:1058D00014AA15A947EC106B204601F0D8F9C8F3BB
:1058E0000A550490002D7CD0C7F3130343F07F5B6F
:1058F000B2464BF4401BA5F2FF35CDF84C90002288
:105900008B4B50465946FAF7C7FC81A3D3E90023D5
:10591000FAF77AFE80A3D3E90023FAF7BFFC064624
:1059200028460F46FAF706FE7DA3D3E90023FAF7CF
:105930006BFE02460B4630463946FAF7AFFC064688
:105940000F46FBF73BFB00228246002330463946D8
:10595000FBF7F6FA48B15046FAF7ECFD32463B4603
:10596000FBF7E4FA08B90AF1FF3ABAF1160F59D871
:10597000704901EBCA01DDE90023D1E90001FBF721
:10598000FDFA002850D00AF1FF3A00230F93149B30
:105990005D1BB5F1010849BFC5F101030023059363
:1059A0004FF0000858BF0593BAF1000F3EDB00230B
:1059B000D044CDF838A00793069B092B00F29080C5
:1059C000052BC4BF043B0693069BA3F10203CCBF87
:1059D00000250125032B00F28F80DFE803F07D7F97
:1059E0003171DDE914531D4405F23240202813DDE6
:1059F000C0F14000009B08FA00F805F2124023FABB
:105A000000F048EA0000FAF785FD01238246A1F183
:105A1000F87B013D139372E7009BC0F1200003FA6D
:105A200000F0F0E70123B1E70F90B0E7059BA3EB8F
:105A30000A030593CAF10003079300230E93BBE703
:105A400001230A930B9B002B59DD02939946666A4A
:105A500000227260042202F114009842716853D946
:105A6000204600F088FE636A3060B9F10E0FD3F86B
:105A700000B000F2E680002D00F0E3809DED007B99
:105A8000BAF1000F8DED107B74DD2A4A0AF00F0386
:105A900002EBC30393ED007B4FEA2A16F0068DED6F
:105AA000087B65D5244BDDE91001D3E90823FAF71B
:105AB000D5FECDE9000106F00F0603251E4F4CE090
:105AC00001230A930B9B534403F1010902934B46B4
:105AD000012BB8BF0123BAE70023B2E70023F0E7A8
